:1000000020010020950B0000010C0000090C0000ED
:10001000110C0000110C0000110C00000000000089
:10002000000000000000000000000000110C0000B3
:10003000110C000000000000110C0000110C000069
:10004000110C0000110C0000110C0000110C00003C
:10005000110C0000110C0000110C0000110C00002C
:10006000110C0000110C0000110C0000110C00001C
:10007000110C0000110C0000110C0000110C00000C
:10008000110C0000110C0000110C0000110C0000FC
:10009000110C0000110C0000110C0000110C0000EC
:1000A000110C0000110C0000110C0000110C0000DC
:1000B000110C0000110C0000110C0000110C0000CC
:1000C000110C0000110C0000110C0000110C0000BC
:1000D000110C0000110C0000110C0000110C0000AC
:1000E000110C00000000000000000000110C0000D6
:1000F000110C0000110C0000110C0000110C00008C
:10010000110C0000110C0000110C0000110C00007B
:100110000000000000000000110C0000110C0000A5
:10012000110C0000110C0000110C0000110C00005B
:10013000110C0000110C0000110C0000110C00004B
:1001400000000000000000000000000000000000AF
:10015000110C0000110C0000110C0000110C00002B
:10016000000000000000000000000000000000008F
:10017000000000000000000000000000000000007F
:10018000000000000000000000000000000000006F
:10019000000000000000000000000000000000005F
:1001A000000000000000000000000000000000004F
:1001B000110C0000110C0000110C0000110C0000CB
:1001C000110C0000110C0000110C0000110C0000BB
:1001D000110C0000110C0000110C0000110C0000AB
:1001E000110C0000110C0000110C000000000000B8
:1001F00000000000110C0000110C0000110C0000A8
:10020000110C0000110C00000000000000000000B4
:10021000110C0000110C0000110C0000110C00006A
:10022000110C0000110C0000110C0000110C00005A
:10023000110C0000110C0000110C0000110C00004A
:10024000110C0000110C0000110C0000110C00003A
:10025000110C0000110C0000110C0000110C00002A
:10026000110C0000110C0000110C000080B400AF54
:10027000394A394B1B6843F001031360364B1B6846
:10028000364A1360364A364B1B6823F0E00313608E
:10029000344A344B1B68C3F313031360324A324BA6
:1002A0001B6843F0E0031360304A304B1B6823F0B7
:1002B000E00313602E4A2E4B1B6843F0E0031360EB
:1002C0002C4A2C4B1B6843F0E0031360224A224B5C
:1002D0001B6843F0020313601F4B1B681F4A136027
:1002E000254A254B1B6823F0FF031360234B1B6833
:1002F000224B00221A60224A214B1B6843F0FF0365
:100300001360204A1F4B1B6823F0FF0313601E4A33
:100310001D4B1B6843F0FF0313601C4A1B4B1B68FB
:1003200043F0FF0313600C4A0B4B1B6843F01003B0
:100330001360094B1B68094A1360154A144B1B686C
:100340001360144A134B1B6843F01F03136000BF74
:10035000BD465DF8047B704708E10F402001002096
:10036000284500402C450040004400402044004007
:100370001C45004008450040285500402C550040D1
:1003800000540040205400401C55004008550040D7
:10039000004402401C45024080B483B000AF0346D5
:1003A000FB711E4A1D4B1B6823F0E00313601C4ABF
:1003B000FB791360194A194B1B6843F080031360E3
:1003C000164A164B1B6823F060031360154B00227E
:1003D0001A6004E0134B1B680133124A1360114B7F
:1003E0001B68002BF6D00D4A0C4B1B6823F0E00372
:1003F00013600C4B00221A6004E00A4B1B680133A7
:10040000084A1360074B1B68B3F57A7FF5D300BF2A
:100410000C37BD465DF8047B704700BFFC430040CD
:10042000FC5300402001002080B483B000AF03469D
:10043000FB711B4AFB7913601A4A1A4B1B6843F085
:10044000C0031360174A174B1B6823F02003136087
:10045000154B00221A6004E0134B1B680133124A4B
:100460001360114B1B68162BF6D90E4A0D4B1B68F7
:1004700023F0E00313600C4B00221A6004E00A4BE7
:100480001B680133084A1360074B1B68B3F57A7F7A
:10049000F5D300BF0C37BD465DF8047B704700BF45
:1004A000FC530040FC4300402001002080B500AF19
:1004B000FFF7DCFE254B00221A6004E0234B1B688B
:1004C0000133224A1360214B1B6843F69722934263
:1004D000F4D93820FFF760FF1C4B00221A6004E0BB
:1004E0001A4B1B680133194A1360184B1B6841F201
:1004F00087329342F4D93820FFF74EFF134B002286
:100500001A6004E0114B1B680133104A13600F4B53
:100510001B68952BF6D90C20FFF73EFF0120FFF753
:100520003BFF0620FFF738FF084B00221A6004E06B
:10053000064B1B680133054A1360044B1B684CF2E1
:100540004F329342F4D900BF80BD00BF200100208C
:1005500080B586B000AFF860B9607A60FB68012BA7
:1005600001D1802300E0C0237B617B69DAB2BB68E4
:10057000DBB21344DBB21846FFF70EFF06E07B68E0
:100580005A1C7A601B781846FFF74EFF7B681B7871
:10059000002BF4D100BF1837BD4680BD80B584B0B4
:1005A00000AF7860354A07F1080310681860928838
:1005B0009A807B681B68002B31D07B6804331B68F2
:1005C000002B07D07B6804331B68DBB23033DBB20F
:1005D0005BB23B727B6804331B68002B04D17B68E1
:1005E00008331B68002B07D07B6808331B68DBB21D
:1005F0003033DBB25BB27B722E23BB727B680C3371
:100600001B68DBB23033DBB25BB2FB727B6810334A
:100610001B68DBB23033DBB25BB23B731EE07B683E
:1006200004331B68002B07D07B6804331B68DBB2E4
:100630003033DBB25BB2FB727B6804331B68002B88
:1006400004D17B6808331B68002B07D07B68083314
:100650001B68DBB23033DBB25BB23B73084A00216C
:100660000120FFF775FF07F108031A460B2101204F
:10067000FFF76EFF00BF1037BD4680BD240C0000A1
:10068000180C0000B0B59EB000AF7F4B07F14004DE
:100690001D460FCD0FC40FCD0FC42B6823607B4BBD
:1006A00007F11C041D460FCD0FC40FCD0FC42B68DE
:1006B0002360774B5B684FF47A7202FB03F2744B52
:1006C0009B68642101FB03F3D118714BDA68134670
:1006D0009B0013445B00CA186D4B1B6913443B67B6
:1006E0006C4B01221A6000237B67B6E00023FB6697
:1006F0007B6F9B0007F17802134453F8383C3A6F44
:1007000092FBF3F3002B00F0A5800023BB667B6F08
:100710009B0007F17802134453F8382C3B6F93FB8E
:10072000F2F102FB01F29B1A7B660123BB607B6E38
:10073000594A82FB03129211DB17D31AFB607B6EBE
:10074000564A82FB03125211DB17D11A544B83FB1A
:1007500001239A10CB17D21A13469B0013445B0057
:10076000CA1A3A617B6E4E4A82FB03129210DB1763
:10077000D11A4B4B83FB01239A10CB17D21A134685
:100780009B0013445B00CA1A7A61796E444B83FB69
:1007900001239A10CB17D21A13469B0013445B0017
:1007A000CA1ABA617B6F9B0007F17802134453F8B1
:1007B000383C3A6F92FBF3F3DBB23033DBB25BB21F
:1007C0003B7100237B7107F108031846FFF7E6FE33
:1007D0003B1D1A4600210220FFF7BAFE314A0121D3
:1007E0000220FFF7B5FE304A04210220FFF7B0FED9
:1007F0007B6F9B0007F17802134453F85C3C1A4668
:1008000004210220FFF7A4FE0023BB6616E000F0DF
:10081000B7F8F866FB6E032B16D0244B00221A6043
:1008200004E0224B1B680133204A13601F4B1B68F6
:10083000B3F57A7FF5D3BB6E0133BB66BB6E40F672
:10084000B7329342E3DD00E000BFFB6E032B09D01B
:100850007B6E3B677B6F01337B677B6F082B7FF77A
:1008600045AF00E000BF3B6F002B09D1104A0021CB
:100870000120FFF76DFE0F4A00210220FFF768FEFE
:1008800000BF7837BD46B0BD680C0000E40C000026
:100890000C00002008000020D34D62101F85EB5192
:1008A000676666662C0C0000300C000020010020FA
:1008B000400C0000540C000080B500AF114B012229
:1008C0001A60104B00225A600E4B00229A600D4BAA
:1008D0000022DA600B4B00221A610B4B00221A60D7
:1008E0000A4B00221A600A4B00221A60094A0021B2
:1008F0000120FFF72DFE084A00210220FFF728FE05
:1009000000BF80BD0C000020040000200800002073
:1009100000000020080D00001C0D000080B400AF96
:10092000164B1B6803F00103002B21D0134B1B68EF
:1009300003F00203002B19D0104B1B6803F00403D3
:10094000002B11D00D4B1B6803F00803002B09D0BE
:100950000A4B1B6803F01003002B01D1052308E0AC
:10096000002306E0042304E0032302E0022300E066
:1009700001231846BD465DF8047B7047FC430240E6
:1009800080B500AFFFF7CAFF0346032B0ED11D4B06
:100990001B6801331B4A13601A4B1B6841F28832F3
:1009A00093422CDDFFF788FF032329E0FFF7B6FF12
:1009B0000346002B23D1144B1B68002B1FD1134B74
:1009C0005B68002B0BD1114B9B68002B07D10F4BA1
:1009D000DB68002B03D10D4B1B69002B0FD0094B9B
:1009E0001B680133074A1360064B1B6841F28832CB
:1009F000934204DD034B00221A60FFF743FE0023FD
:100A0000184680BD04000020080000200C000020D3
:100A100080B500AFFFF74AFD5648FFF7BFFDFFF76F
:100A20007DFF0346002B05D0FFF778FF0246524BAF
:100A30001A608EE0504B1B68002B00F087804E4BF5
:100A40001B68012B10D14B4B5B68591C4B4B83FB34
:100A500001239A10CB17D21A13469B0013445B0054
:100A6000CA1A444B5A6067E0434B1B68022B10D1F3
:100A7000404B9B68591C414B83FB01239A10CB17B9
:100A8000D21A13469B0013445B00CA1A394B9A6072
:100A900052E0394B1B68032B1DD1364B0022DA6024
:100AA000344B00221A61334B1B685A1C344B1340E1
:100AB000002B03DA013B63F0010301331A462D4B8F
:100AC0001A60304B1B68002B36D12F4A00210220C0
:100AD000FFF73EFD30E0284B1B68042B14D1254B5B
:100AE0001B68012B10D1234BDB68591C234B83FB64
:100AF00001239A10CB17D21A13469B0013445B00B4
:100B0000CA1A1C4BDA6017E01B4B1B68052B13D16C
:100B1000184B1B68012B0FD1164B1B69591C174B27
:100B200083FB01239A10CB17D21A13469B00134460
:100B30005B00CA1A0F4B1A61124B1B68002B02D1C3
:100B40000C48FFF72BFD114B00221A600A4B0022C4
:100B50001A60FFF715FF0E4B00221A6004E00C4BE1
:100B60001B6801330A4A1360094B1B68B3F57A7F8F
:100B7000F5D354E70C00002000000020676666668D
:100B80000100008008000020300D0000040000205B
:100B90002001002080B582B000AF134B7B60134B67
:100BA0003B6007E03B681A1D3A607A68111D796066
:100BB00012681A603B680E4A9342F3D30E480F49FD
:100BC0004FF000028842B8BF40F8042BFADB094A14
:100BD000084B1B6843F470031360FFF719FF00BF55
:100BE0000837BD4680BD00BF410D00000000002059
:100BF0000000002088ED00E000000020240100201B
:100C000080B400AFFEE700BF80B400AFFEE700BFD6
:100C100080B400AFFEE700BF2D2D2D2D2D2D2D2DE5
:100C20002D2D2D002D2D2D2D2D000000202D2000EF
:100C30002D2D2D2D2D2D2D2D2D2D2D2D0000000098
:100C40002049736C656D204261736172696C692023
:100C50000000000052657365742042656B6C656E20
:100C600069796F7200000000D0070000E8030000FF
:100C7000F4010000640000003200000019000000D0
:100C80000A00000005000000010000007969726D93
:100C9000696C696B000000006F6E6C756B00000082
:100CA0006265736C696B00006269726C696B00004D
:100CB000796172696D6C696B00000000636579721F
:100CC000656B6C696B0000006D6574656C696B0029
:100CD00064656C696B0000006B757275736C756B85
:100CE000000000008C0C0000980C0000A00C00001C
:100CF000A80C0000B00C0000BC0C0000C80C0000E8
:100D0000D00C0000D80C00002D2D2D2D2D2D2D2DBB
:100D10002D2D2D2D2D2D2D2D000000002052657321
:100D20006574204261736172696C69200000000083
:100D300020202020202020202020202020202020B3
:010D400000B2
:040D4400F8B500BF3F
:040D4800F8B500BF3B
:00000001FF
